:020000040800F2
:10000000001800208D020008FD020008FD02000813
:1000100000000000000000000000000000000000E0
:10002000000000000000000000000000FD020008C9
:100030000000000000000000FD020008FD020008B2
:10004000FD02000800000000FD020008FD0200089B
:10005000FD020008FD020008FD020008FD02000884
:1000600000000000FD020008FD020008FD0200087B
:10007000FD020008FD020008FD020008000000006B
:10008000FD0200080000000000000000FD02000862
:1000900000000000FD020008FD020008FD0200084B
:1000A00000000000FD02000800000000FD02000842
:1000B000FD0200080000000000000000FD02000832
:1000C000054B0648033310B51B1A062B03D9044B06
:1000D000002B00D0984710BD000000200000002039
:1000E000000000000648074910B5091A8910CB0F17
:1000F0005918491003D0044B002B00D0984710BD6D
:1001000000000020000000200000000010B5074C97
:100110002378002B09D1FFF7D3FF054B002B02D02A
:10012000044800E000BF0123237010BD0000002040
:100130000000000000030008094B10B5002B03D09D
:100140000849094800E000BF08480368002B02D1B5
:10015000FFF7C8FF10BD064B002BF9D09847F7E713
:100160000000000004000020000300080000002040
:100170000000000070B50D4E0D4D0024AD1BAD10FC
:1001800005D0A300F35801349847A542F9D100F0F7
:10019000B7F8084E084D0024AD1BAD1005D0A300E4
:1001A000F35801349847A542F9D170BD18030008EF
:1001B00018030008180300081C03000882B000237D
:1001C000019302E0019B01330193019B8342F9D328
:1001D00002B0704770B5114A5369802189020B4300
:1001E00053619023DB051A688021C9000A431A6015
:1001F000596820220A435A6000229A609025ED0532
:100200002023AB61064C2000FFF7D8FF80239B031F
:10021000AB612000FFF7D2FFF0E7C04600100240BC
:1002200040420F00134B1A6801210A431A605868B4
:10023000114A02405A601868104A02401A60186851
:100240000F4A02401A6058680E4A02405A60DA6A41
:100250000F208243DA62186B0B4A02401A63186B54
:10026000802202431A635A6B8A435A6300229A60BF
:100270007047C046001002400CB8FF08FFFFF6FEB2
:10028000FFFFFBFFFFFFC0FF6CFEFFFF134885462B
:1002900004200168090E1F22914205D11048012156
:1002A00001601048002101600F481049104A0023E6
:1002B00002E0D458C4500433C4188C42F9D30D4A18
:1002C0000D4C002301E013600432A242FBD3FFF780
:1002D000A9FFFFF74FFFFFF77DFFFEE700180020A3
:1002E0001810024000000140000000200000002023
:1002F00020030008000000201C000020FEE7000092
:10030000F8B5C046F8BC08BC9E467047F8B5C04674
:08031000F8BC08BC9E467047D2
:04031800390100089F
:04031C000D010008C7
:040000050800028D60
:00000001FF
